:020000040000FA
:020000005A287C
:080008008C00030E8D000D2099
:100010000D0E83008C0E0C0E09000B1D4A281028B3
:100020000B118E0A0E083D3C031D08008E01920143
:100030000F089400100895001108960005309300F1
:1000400014088F070F08093C031C7020150890073F
:100050001008093C031C7420160891071108013090
:100060008100930B202894010F089500100896003A
:10007000110892008F01900191011208093C0318A8
:1000800008000A3094000A3095000A3096000A30C1
:100090009200080078208B108F0A0F08093C031883
:1000A00008008F01900A1008093C0318080090010D
:1000B000910A080089018316053081000C30840004
:1000C0008001840A041F6028041E6028B0308B0061
:1000D00083168601061485018312FF3085008D2862
:1000E0000A308F02900A08000A309002910A080034
:1000F00096309700970B7A2808008207FC3460340A
:10010000DA34F2346634B634BE34E034FE34F634D5
:100110008E349C34EE341C3408000B3094000D30C7
:1001200095000C3096000B30920014087D2086005C
:100130000510051415087D20860085108514160805
:100140007D2086000511051512087D208600851189
:040150008515952854
:02400E00F23F7F
:00000001FF
